S01900004C45442073657175656E63652056332E302E73726563B6
S11300000C944E000C94E7090C94130A0C943F0AC8
S11300100C9434100C9404100C946B000C94D40FB6
S11300200C946B000C94A40F0C94740F0C94440F58
S11300300C946B000C946B000C946B000C946B0090
S11300400C946B000C946B000C946B000C946B0080
S11300500C946B00DF009C018602A203F1044006AD
S11300608F07DE08870B920B9D0BAB0CA80BAB0C18
S1130070B30BBE0BC90BD40BEA0BF50B000CAD0C88
S11300800B0CAD0C160C210C2C0C370C4D0C580C15
S1130090630C6E0C790C840C8F0C9A0C11241FBE0B
S11300A0CFE5D8E0DEBFCDBF10E0A0E6B0E0EEE0E3
S11300B0F2E202C005900D92A239B107D9F720E00F
S11300C0A2E9B0E001C01D92A33AB207E1F70E9491
S11300D061090C9405110C9400008091A00090918A
S11300E0A10001969093A1008093A0008091A000AC
S11300F09091A1000A9720F01092A1001092A00004
S113010008951092A1001092A000809193008F5F37
S11301108093930008951092A1001092A000809102
S113012092008F5F8093920008958FB780688FBF8D
S11301308FE790E00E9412098CE790E00E94120978
S113014089E790E00E94120986E790E00E94120974
S113015082E790E00E94F6088EE690E00E94F6089E
S11301608CE690E00E94050B8AE690E00E94050B65
S113017080E690E00E9486100895CF9360E081E8C5
S113018090E00E946B0A61E08BE890E00E946B0AA9
S1130190C82F609160008DE690E00E946410C82B27
S11301A0E09193008E2F90E0FC013197E830F10547
S11301B010F00C94F308E65DFF4F0C94FF1080E6FA
S11301C090E00E94E110C82F80919200823009F4DF
S11301D066C030F4882311F1813009F43FC0F6C7BA
S11301E0833009F47DC0843009F49BC0EFC780914B
S11301F0A0009091A100892B31F48FE790E00E9438
S11302003B09C82B0BC08091A0009091A100892BC1
S113021029F08FE790E00E944E09C82B809192004C
S11302208111E1C780919300813009F3DCC780918B
S1130230A0009091A100029730F48FE790E00E9413
S11302403B09C82B0BC08091A0009091A10002979C
S113025028F08FE790E00E944E09C82B809192000D
S1130260813009F0C0C780919300813001F3BBC78E
S11302708091A0009091A100039730F48FE790E063
S11302800E943B09C82B0BC08091A0009091A10053
S1130290039728F08FE790E00E944E09C82B8091C5
S11302A09200823009F09FC780919300813001F35E
S11302B09AC78091A0009091A100059730F48FE730
S11302C090E00E943B09C82B0BC08091A000909144
S11302D0A100059728F08FE790E00E944E09C82BF3
S11302E080919200833009F07EC780919300813021
S11302F001F379C78091A0009091A100089730F490
S11303008FE790E00E943B09C82B0BC08091A000AE
S11303109091A100089728F08FE790E00E944E0981
S1130320C82B80919200843021F480919300813015
S113033009F31092920057C780919200823009F419
S113034084C030F4882361F1813009F453C040C77C
S1130350833009F4A5C0843009F4CDC039C7809135
S1130360A0009091A100892B59F48FE790E00E949E
S11303703B09C82B8CE790E00E943B09C82B10C0B6
S11303808091A0009091A100892B51F08FE790E01B
S11303900E944E09C82B8CE790E00E944E09C82B9E
S11303A08091920081111FC7809193008230B9F22D
S11303B01AC78091A0009091A100029758F48FE78A
S11303C090E00E943B09C82B8CE790E00E943B0917
S11303D0C82B10C08091A0009091A100029750F00A
S11303E08FE790E00E944E09C82B8CE790E00E94B2
S11303F04E09C82B80919200813009F0F4C6809197
S113040093008230B1F2EFC68091A0009091A100D8
S1130410039758F48FE790E00E943B09C82B8CE7C0
S113042090E00E943B09C82B10C08091A0009091DD
S1130430A100039750F08FE790E00E944E09C82B6B
S11304408CE790E00E944E09C82B80919200823084
S113045009F0C9C6809193008230B1F2C4C680917C
S1130460A0009091A100059758F48FE790E00E94B6
S11304703B09C82B8CE790E00E943B09C82B10C0B5
S11304808091A0009091A100059750F08FE790E033
S11304900E944E09C82B8CE790E00E944E09C82B9D
S11304A080919200833009F09EC68091930082303F
S11304B0B1F299C68091A0009091A100089758F4D8
S11304C08FE790E00E943B09C82B8CE790E00E94E4
S11304D03B09C82B10C08091A0009091A1000897FF
S11304E050F08FE790E00E944E09C82B8CE790E013
S11304F00E944E09C82B80919200843021F480918F
S113050093008230B9F2109292006DC680919200ED
S1130510823009F4A2C030F48823B1F1813009F4A7
S113052067C058C6833009F4CDC0843009F4FFC0D5
S113053051C68091A0009091A100892B81F48FE78E
S113054090E00E943B09C82B8CE790E00E943B0995
S1130550C82B89E790E00E943B09C82B15C0809105
S1130560A0009091A100892B79F08FE790E00E9480
S11305704E09C82B8CE790E00E944E09C82B89E7EE
S113058090E00E944E09C82B8091920081112BC6E5
S113059080919300833069F226C68091A0009091E7
S11305A0A100029780F48FE790E00E943B09C82BDA
S11305B08CE790E00E943B09C82B89E790E00E94F9
S11305C03B09C82B15C08091A0009091A10002970F
S11305D078F08FE790E00E944E09C82B8CE790E0FA
S11305E00E944E09C82B89E790E00E944E09C82B4F
S11305F080919200813009F0F6C580919300833098
S113060061F2F1C58091A0009091A100039780F45C
S11306108FE790E00E943B09C82B8CE790E00E9492
S11306203B09C82B89E790E00E943B09C82B15C001
S11306308091A0009091A100039778F08FE790E05B
S11306400E944E09C82B8CE790E00E944E09C82BEB
S113065089E790E00E944E09C82B80919200823075
S113066009F0C1C580919300833061F2BCC58091CB
S1130670A0009091A100059780F48FE790E00E947C
S11306803B09C82B8CE790E00E943B09C82B89E703
S113069090E00E943B09C82B15C08091A000909166
S11306A0A100059778F08FE790E00E944E09C82BCF
S11306B08CE790E00E944E09C82B89E790E00E94E5
S11306C04E09C82B80919200833009F08CC580912B
S11306D09300833061F287C58091A0009091A100BE
S11306E0089780F48FE790E00E943B09C82B8CE7C1
S11306F090E00E943B09C82B89E790E00E943B09E7
S1130700C82B15C08091A0009091A100089778F0A3
S11307108FE790E00E944E09C82B8CE790E00E947E
S11307204E09C82B89E790E00E944E09C82B80919E
S11307309200843021F480919300833069F2109206
S1130740920051C580919200823009F4C1C038F4FE
S1130750882309F440C0813009F47BC03DC583304F
S113076009F4F5C0843009F431C136C58091A00084
S11307709091A100892BA9F48FE790E00E943B0996
S1130780C82B8CE790E00E943B09C82B89E790E0D6
S11307900E943B09C82B86E790E00E943B09C82BC6
S11307A01AC08091A0009091A100892BA1F08FE73D
S11307B090E00E944E09C82B8CE790E00E944E09FD
S11307C0C82B89E790E00E944E09C82B86E790E089
S11307D00E944E09C82B80919200811104C580911A
S11307E09300843019F2FFC48091A0009091A1007D
S11307F00297A8F48FE790E00E943B09C82B8CE78E
S113080090E00E943B09C82B89E790E00E943B09D5
S1130810C82B86E790E00E943B09C82B1AC0809140
S1130820A0009091A1000297A0F08FE790E00E94B1
S11308304E09C82B8CE790E00E944E09C82B89E72B
S113084090E00E944E09C82B86E790E00E944E0972
S1130850C82B80919200813009F0C5C48091930027
S1130860843011F2C0C48091A0009091A10003973C
S1130870A8F48FE790E00E943B09C82B8CE790E036
S11308800E943B09C82B89E790E00E943B09C82BD2
S113089086E790E00E943B09C82B1AC08091A00013
S11308A09091A1000397A0F08FE790E00E944E0979
S11308B0C82B8CE790E00E944E09C82B89E790E092
S11308C00E944E09C82B86E790E00E944E09C82B6F
S11308D080919200823009F086C480919300843024
S11308E011F281C48091A0009091A1000597A8F411
S11308F08FE790E00E943B09C82B8CE790E00E94B0
S11309003B09C82B89E790E00E943B09C82B86E786
S113091090E00E943B09C82B1AC08091A0009091DE
S1130920A1000597A0F08FE790E00E944E09C82B24
S11309308CE790E00E944E09C82B89E790E00E9462
S11309404E09C82B86E790E00E944E09C82B80917F
S11309509200833009F047C480919300843011F2EF
S113096042C48091A0009091A1000897A8F48FE759
S113097090E00E943B09C82B8CE790E00E943B0961
S1130980C82B89E790E00E943B09C82B86E790E0DA
S11309900E943B09C82B1AC08091A0009091A1002D
S11309A00897A0F08FE790E00E944E09C82B8CE7CF
S11309B090E00E944E09C82B89E790E00E944E09FE
S11309C0C82B86E790E00E944E09C82B80919200C4
S11309D0843021F480919300843019F210929200B3
S11309E002C480919200823009F4C1C038F4882393
S11309F009F440C0813009F47BC0F0C3833009F4AA
S1130A00F5C0843009F431C1E9C38091A00090910C
S1130A10A100892BA9F48FE790E00E944E09C82B0E
S1130A208CE790E00E943B09C82B89E790E00E9484
S1130A303B09C82B86E790E00E943B09C82B1AC0EB
S1130A408091A0009091A100892BA1F08FE790E004
S1130A500E944E09C82B8CE790E00E944E09C82BD7
S1130A6089E790E00E944E09C82B86E790E00E9437
S1130A704E09C82B809192008111B5C380919300D7
S1130A80853019F2B0C38091A0009091A100029723
S1130A90A8F48FE790E00E944E09C82B8CE790E001
S1130AA00E943B09C82B89E790E00E943B09C82BB0
S1130AB086E790E00E943B09C82B1AC08091A000F1
S1130AC09091A1000297A0F08FE790E00E944E0958
S1130AD0C82B8CE790E00E944E09C82B89E790E070
S1130AE00E944E09C82B86E790E00E944E09C82B4D
S1130AF080919200813009F076C380919300853013
S1130B0011F271C38091A0009091A1000397A8F401
S1130B108FE790E00E944E09C82B8CE790E00E947A
S1130B203B09C82B89E790E00E943B09C82B86E764
S1130B3090E00E943B09C82B1AC08091A0009091BC
S1130B40A1000397A0F08FE790E00E944E09C82B04
S1130B508CE790E00E944E09C82B89E790E00E9440
S1130B604E09C82B86E790E00E944E09C82B80915D
S1130B709200823009F037C380919300853011F2DE
S1130B8032C38091A0009091A1000597A8F48FE74B
S1130B9090E00E944E09C82B8CE790E00E943B092C
S1130BA0C82B89E790E00E943B09C82B86E790E0B8
S1130BB00E943B09C82B1AC08091A0009091A1000B
S1130BC00597A0F08FE790E00E944E09C82B8CE7B0
S1130BD090E00E944E09C82B89E790E00E944E09DC
S1130BE0C82B86E790E00E944E09C82B80919200A2
S1130BF0833009F0F8C280919300853011F2F3C27A
S1130C008091A0009091A1000897A8F48FE790E04C
S1130C100E944E09C82B8CE790E00E943B09C82B28
S1130C2089E790E00E943B09C82B86E790E00E9488
S1130C303B09C82B1AC08091A0009091A10008978D
S1130C40A0F08FE790E00E944E09C82B8CE790E05B
S1130C500E944E09C82B89E790E00E944E09C82BD8
S1130C6086E790E00E944E09C82B80919200843060
S1130C7021F480919300853019F210929200B3C24E
S1130C8080919200823009F4C1C038F4882309F4B9
S1130C9040C0813009F47BC0A3C2833009F4F5C09D
S1130CA0843009F431C19CC28091A0009091A100CC
S1130CB0892BA9F48FE790E00E944E09C82B8CE79A
S1130CC090E00E944E09C82B89E790E00E943B09FE
S1130CD0C82B86E790E00E943B09C82B1AC080917C
S1130CE0A0009091A100892BA1F08FE790E00E94D1
S1130CF04E09C82B8CE790E00E944E09C82B89E767
S1130D0090E00E944E09C82B86E790E00E944E09AD
S1130D10C82B80919200811166C280919300863025
S1130D2019F261C28091A0009091A1000297A8F4E9
S1130D308FE790E00E944E09C82B8CE790E00E9458
S1130D404E09C82B89E790E00E943B09C82B86E72F
S1130D5090E00E943B09C82B1AC08091A00090919A
S1130D60A1000297A0F08FE790E00E944E09C82BE3
S1130D708CE790E00E944E09C82B89E790E00E941E
S1130D804E09C82B86E790E00E944E09C82B80913B
S1130D909200813009F027C280919300863011F2CD
S1130DA022C28091A0009091A1000397A8F48FE73C
S1130DB090E00E944E09C82B8CE790E00E944E09F7
S1130DC0C82B89E790E00E943B09C82B86E790E096
S1130DD00E943B09C82B1AC08091A0009091A100E9
S1130DE00397A0F08FE790E00E944E09C82B8CE790
S1130DF090E00E944E09C82B89E790E00E944E09BA
S1130E00C82B86E790E00E944E09C82B809192007F
S1130E10823009F0E8C180919300863011F2E3C179
S1130E208091A0009091A1000597A8F48FE790E02D
S1130E300E944E09C82B8CE790E00E944E09C82BF3
S1130E4089E790E00E943B09C82B86E790E00E9466
S1130E503B09C82B1AC08091A0009091A10005976E
S1130E60A0F08FE790E00E944E09C82B8CE790E039
S1130E700E944E09C82B89E790E00E944E09C82BB6
S1130E8086E790E00E944E09C82B8091920083303F
S1130E9009F0A9C180919300863011F2A4C1809118
S1130EA0A0009091A1000897A8F48FE790E00E9419
S1130EB04E09C82B8CE790E00E944E09C82B89E7A5
S1130EC090E00E943B09C82B86E790E00E943B0912
S1130ED0C82B1AC08091A0009091A1000897A0F09F
S1130EE08FE790E00E944E09C82B8CE790E00E94A7
S1130EF04E09C82B89E790E00E944E09C82B86E76B
S1130F0090E00E944E09C82B80919200843021F415
S1130F1080919300863019F21092920064C18091FE
S1130F209200823009F4C1C038F4882309F440C027
S1130F30813009F47BC056C1833009F4F5C0843094
S1130F4009F431C14FC18091A0009091A100892B77
S1130F50A9F48FE790E00E944E09C82B8CE790E03B
S1130F600E944E09C82B89E790E00E944E09C82BC5
S1130F7086E790E00E943B09C82B1AC08091A0002C
S1130F809091A100892BA1F08FE790E00E944E0977
S1130F90C82B8CE790E00E944E09C82B89E790E0AB
S1130FA00E944E09C82B86E790E00E944E09C82B88
S1130FB080919200811117C180919300873019F2BA
S1130FC012C18091A0009091A1000297A8F48FE72C
S1130FD090E00E944E09C82B8CE790E00E944E09D5
S1130FE0C82B89E790E00E944E09C82B86E790E061
S1130FF00E943B09C82B1AC08091A0009091A100C7
S11310000297A0F08FE790E00E944E09C82B8CE76E
S113101090E00E944E09C82B89E790E00E944E0997
S1131020C82B86E790E00E944E09C82B809192005D
S1131030813009F0D8C080919300873011F2D3C079
S11310408091A0009091A1000397A8F48FE790E00D
S11310500E944E09C82B8CE790E00E944E09C82BD1
S113106089E790E00E944E09C82B86E790E00E9431
S11310703B09C82B1AC08091A0009091A10003974E
S1131080A0F08FE790E00E944E09C82B8CE790E017
S11310900E944E09C82B89E790E00E944E09C82B94
S11310A086E790E00E944E09C82B8091920082301E
S11310B009F099C080919300873011F294C0809117
S11310C0A0009091A1000597A8F48FE790E00E94FA
S11310D04E09C82B8CE790E00E944E09C82B89E783
S11310E090E00E944E09C82B86E790E00E943B09DD
S11310F0C82B1AC08091A0009091A1000597A0F080
S11311008FE790E00E944E09C82B8CE790E00E9484
S11311104E09C82B89E790E00E944E09C82B86E748
S113112090E00E944E09C82B80919200833009F010
S11311305AC080919300873011F255C08091A0006D
S11311409091A1000897A8F48FE790E00E944E09BF
S1131150C82B8CE790E00E944E09C82B89E790E0E9
S11311600E944E09C82B86E790E00E943B09C82BD9
S11311701AC08091A0009091A1000897A0F08FE779
S113118090E00E944E09C82B8CE790E00E944E0923
S1131190C82B89E790E00E944E09C82B86E790E0AF
S11311A00E944E09C82B80919200843021F48091D2
S11311B09300873019F21092920015C086E790E0F0
S11311C00E944E09C82B109293000DC0C0E00BC0C2
S11311D0C0E009C0C0E007C0C0E005C0C0E003C073
S11311E0C0E001C0C0E08C2FCF910895CF93DF936E
S11311F0009781F0FC012181283070F42081243093
S113120068F4EC0160E00E94660960E0CE010E948F
S1131210A60905C080E003C080E001C080E0DF9142
S1131220CF910895CF93DF930097D9F0FC012181EA
S11312302830C8F420812430C0F4EC0161E00E941D
S113124066098A81882319F0813031F010C060E08A
S1131250CE010E94A6090CC061E0CE010E94A6093D
S113126007C080E005C080E003C080E001C080E0EA
S1131270DF91CF910895009759F0FC012181283026
S113128048F42081243040F461E00E94A6090895C6
S113129080E0089580E0089580E00895009759F073
S11312A0FC012181283048F42081243040F460E09E
S11312B00E94A609089580E0089580E0089580E0E2
S11312C008950E9495000E94BD00FDCF0097B1F1E2
S11312D0DC0111962C911197283090F5EC91E430B3
S11312E088F56623B1F0613079F5F0E0EE0FFF1F69
S11312F0E657FF4F0190F081E02D308181E090E0CE
S113130002C0880F991F2A95E2F7832B808381E01E
S11313100895F0E0EE0FFF1FE657FF4F0190F081B4
S1131320E02D308181E090E002C0880F991F2A955A
S1131330E2F780958323808381E0089580E0089517
S113134080E0089580E0089580E008950097B9F161
S1131350DC0111962C911197283098F5EC91E4302A
S113136090F5662319F06130B1F02FC0F0E0EE0F74
S1131370FF1FEE57FF4F0190F081E02D308181E097
S113138090E002C0880F991F2A95E2F78095832385
S1131390808381E00895F0E0EE0FFF1FEE57FF4FCA
S11313A00190F081E02D308181E090E002C0880F4F
S11313B0991F2A95E2F7832B808381E0089580E0CA
S11313C0089580E0089580E0089580E008951F92D4
S11313D00F920FB60F9211242F933F934F935F9365
S11313E06F937F938F939F93AF93BF93EF93FF93E9
S11313F08AB780648ABFE0919800F0919900309791
S113140009F00995FF91EF91BF91AF919F918F9151
S11314107F916F915F914F913F912F910F900FBEEC
S11314200F901F9018951F920F920FB60F921124D0
S11314302F933F934F935F936F937F938F939F93D8
S1131440AF93BF93EF93FF938AB780688ABFE0910D
S11314509600F0919700309709F00995FF91EF916C
S1131460BF91AF919F918F917F916F915F914F91B8
S11314703F912F910F900FBE0F901F9018951F92C0
S11314800F920FB60F9211242F933F934F935F93B4
S11314906F937F938F939F93AF93BF93EF93FF9338
S11314A08AB780688ABFE0919400F09195003097E4
S11314B009F00995FF91EF91BF91AF919F918F91A1
S11314C07F916F915F914F913F912F910F900FBE3C
S11314D00F901F9018950097D1F06330D0F46130CD
S11314E051F018F0623069F016C09093990080931F
S11314F0980081E00895909397008093960081E08E
S11315000895909395008093940081E0089580E07D
S1131510089580E0089580E00895633008F069C07C
S1131520853008F068C0613069F120F0623009F458
S113153051C063C0813071F028F0823099F083305B
S1131540C9F05DC085B78E7F85BF85B78D7F85BFA8
S113155081E0089585B7816085BF85B78D7F85BF9C
S113156081E0089585B78E7F85BF85B7826085BF8A
S113157081E0089585B7816085BF85B7826085BFA6
S113158081E00895813071F028F0823099F0833041
S1131590C9F037C085B78B7F85BF85B7877F85BF87
S11315A081E0089585B7846085BF85B7877F85BF4F
S11315B081E0089585B78B7F85BF85B7886085BF37
S11315C081E0089585B7846085BF85B7886085BF4D
S11315D081E00895823019F0833031F014C084B76B
S11315E08F7B84BF81E0089584B7806484BF81E0E9
S11315F0089580E0089580E0089580E0089580E0F3
S1131600089580E0089580E008951F93CF93DF93B9
S113161000D0CDB7DEB7009709F457C0FC01218193
S1131620233008F054C02130E9F018F0223091F151
S11316304AC02BB72F7B2BBF2AB720642ABF60E098
S113164080810E948D0A182F83E0898382E08A8337
S113165060E0CE0101960E946609812B9BB79064DD
S11316609BBF36C02BB72F772BBF2AB720682ABF62
S113167061E080810E948D0A182F83E089838A8328
S113168060E0CE0101960E946609812B9BB79068A9
S11316909BBF1EC02BB72F7D2BBF2AB720622ABF4A
S11316A062E080810E948D0A182F88B3898382E0CA
S11316B08A8360E0CE0101960E946609812B9BB764
S11316C090689BBF05C080E003C080E001C080E05B
S11316D00F900F90DF91CF911F910895833008F000
S11316E034C16A3008F033C1813009F468C020F095
S11316F0823009F4C7C02DC1862F90E08A3091054D
S113170008F029C1FC01EE5CFF4F0C94FF1083B775
S11317108E7F83BF83B78D7F83BF83B78B7F83BF68
S113172081E0089583B7816083BF83B78D7F83BFD2
S113173083B78B7F83BF81E0089583B78E7F83BF98
S113174083B7826083BF83B78B7F83BF81E00895B3
S113175083B7816083BF83B7826083BF83B78B7F86
S113176083BF81E0089583B78E7F83BF83B78D7F66
S113177083BF83B7846083BF81E0089583B78160AA
S113178083BF83B78D7F83BF83B7846083BF81E0CA
S1131790089583B78E7F83BF83B7826083BF83B787
S11317A0846083BF81E0089583B7816083BF83B77A
S11317B0826083BF83B7846083BF81E00895862FEE
S11317C090E08A30910508F0C8C0FC01E45CFF4F4A
S11317D00C94FF108EB58E7F8EBD8EB58D7F8EBD21
S11317E08EB58B7F8EBD81E008958EB581608EBDF0
S11317F08EB58D7F8EBD8EB58B7F8EBD81E00895B5
S11318008EB58E7F8EBD8EB582608EBD8EB58B7F7C
S11318108EBD81E008958EB581608EBD8EB58260E7
S11318208EBD8EB58B7F8EBD81E008958EB58E7F83
S11318308EBD8EB58D7F8EBD8EB584608EBD81E0EC
S113184008958EB581608EBD8EB58D7F8EBD8EB5AB
S113185084608EBD81E008958EB58E7F8EBD8EB579
S113186082608EBD8EB584608EBD81E008958EB594
S113187081608EBD8EB582608EBD8EB584608EBD56
S113188081E00895862F90E08830910508F067C0C4
S1131890FC01EA5BFF4F0C94FF1085B58B7F85BD7F
S11318A085B58D7F85BD85B58E7F85BD81E0089525
S11318B085B5846085BD85B58D7F85BD85B58E7FF5
S11318C085BD81E0089585B58B7F85BD85B5826032
S11318D085BD85B58E7F85BD81E0089585B584601D
S11318E085BD85B5826085BD85B58E7F85BD81E06A
S11318F0089585B58B7F85BD85B58D7F85BD85B5FF
S1131900816085BD81E0089585B5846085BD85B518
S11319108D7F85BD85B5816085BD81E0089585B5E0
S11319208B7F85BD85B5826085BD85B5816085BDAC
S113193081E0089585B5846085BD85B5826085BDE7
S113194085B5816085BD81E0089580E0089580E0DB
S1131950089581E0089580E0089580E0089580E08E
S11319600895009709F480C2FC012081233008F017
S11319707DC23281343008F07BC24381443008F0A8
S113198079C2213009F4A6C020F0223009F4CBC179
S113199073C23130D9F030F0323009F465C03330DD
S11319A0E1F16CC283B7806883BF83B78F7B83BF49
S11319B083B7877F83BF83B78F7E83BF83B78F7DD2
S11319C083BF89B7816089BF81E0089523B720640C
S11319D023BF23B7277F23BFFC012581223059F081
S11319E0233081F0211114C023B72F7E23BF23B7E6
S11319F02F7D23BF0DC023B72F7E23BF23B72062C3
S1131A0023BF06C023B7206123BF23B7206223BFAF
S1131A10FC0180858CBF81E0089523B7206423BF37
S1131A2023B7286023BFFC012481223059F02330DE
S1131A3081F0211114C023B72F7E23BF23B72F7D3C
S1131A4023BF0DC023B72F7E23BF23B7206223BF3C
S1131A5006C023B7206123BF23B7206223BFFC0144
S1131A6080858CBF81E0089523B7206823BF23B706
S1131A702F7B23BF23B7286023BFFC0123812130A0
S1131A8069F028F0223089F02330B1F01BC023B76D
S1131A902F7E23BF23B72F7D23BF14C023B720611C
S1131AA023BF23B72F7D23BF0DC023B72F7E23BFB2
S1131AB023B7206223BF06C023B7206123BF23B707
S1131AC0206223BFFC0180858CBF89B7826089BFF7
S1131AD081E00895313059F138F0323009F4C9C049
S1131AE0333009F475C0CCC18FB588608FBD8FB514
S1131AF084608FBD8FB58E7F8FBD8FB58D7F8FBD79
S1131B008EB58F7E8EBD8EB5877F8EBD8FB58F7B54
S1131B108FBD8FB58F778FBD8FB58F7E8FBD8FB5FE
S1131B208F7D8FBD89B7846089BF81E008952FB50B
S1131B3021602FBD2FB52D7F2FBD2EB52F7E2EBD3D
S1131B402EB5277F2EBDFC012581213099F028F088
S1131B502230E9F0233041F133C02FB52F7B2FBD64
S1131B602FB52F772FBD2FB52F7E2FBD2FB52F7DEE
S1131B702FBD26C02FB520642FBD2FB52F772FBDC5
S1131B802FB520612FBD2FB52F7D2FBD19C02FB5C7
S1131B902F7B2FBD2FB520682FBD2FB52F7E2FBDD6
S1131BA02FB520622FBD0CC02FB520642FBD2FB5DB
S1131BB020682FBD2FB520612FBD2FB520622FBD0A
S1131BC0FC0120852ABD808591858BBD81E0089527
S1131BD02FB521602FBD2FB52D7F2FBD2EB52061D0
S1131BE02EBD2EB5277F2EBDFC012481213099F016
S1131BF028F02230E9F0233041F133C02FB52F7B98
S1131C002FBD2FB52F772FBD2FB52F7E2FBD2FB50D
S1131C102F7D2FBD26C02FB520642FBD2FB52F7764
S1131C202FBD2FB520612FBD2FB52F7D2FBD19C01E
S1131C302FB52F7B2FBD2FB520682FBD2FB52F7E3D
S1131C402FBD2FB520622FBD0CC02FB520642FBD32
S1131C502FB520682FBD2FB520612FBD2FB5206271
S1131C602FBDFC0120852ABD808591858BBD81E037
S1131C7008952FB528602FBD2FB524602FBD2FB533
S1131C802E7F2FBD2FB52D7F2FBD2EB520612EBDEC
S1131C902EB5277F2EBDFC012381213099F028F039
S1131CA02230E9F0233041F133C02FB52F7B2FBD13
S1131CB02FB52F772FBD2FB52F7E2FBD2FB52F7D9D
S1131CC02FBD26C02FB520642FBD2FB52F772FBD74
S1131CD02FB520612FBD2FB52F7D2FBD19C02FB576
S1131CE02F7B2FBD2FB520682FBD2FB52F7E2FBD85
S1131CF02FB520622FBD0CC02FB520642FBD2FB58A
S1131D0020682FBD2FB520612FBD2FB520622FBDB8
S1131D10FC0120852ABD808591858BBD89B78061B2
S1131D2089BF81E008953130D9F030F0323009F4C0
S1131D3065C03330E1F1A6C085B5806885BD85B541
S1131D408F7B85BD85B5877F85BD85B58F7E85BD38
S1131D5085B58F7D85BD89B7806489BF81E008958D
S1131D6025B5206425BD25B5277F25BDFC0125812A
S1131D70223059F0233081F0211114C025B52F7E73
S1131D8025BD25B52F7D25BD0DC025B52F7E25BDCF
S1131D9025B5206225BD06C025B5206125BD25B524
S1131DA0206225BDFC01808583BD81E0089525B5B1
S1131DB0206425BD25B5286025BDFC012481223081
S1131DC059F0233081F0211114C025B52F7E25BD93
S1131DD025B52F7D25BD0DC025B52F7E25BD25B587
S1131DE0206225BD06C025B5206125BD25B520622C
S1131DF025BDFC01808583BD81E0089525B520685B
S1131E0025BD25B52F7B25BD25B5286025BDFC0145
S1131E102381213069F028F0223089F02330B1F099
S1131E201BC025B52F7E25BD25B52F7D25BD14C02E
S1131E3025B5206125BD25B52F7D25BD0DC025B552
S1131E402F7E25BD25B5206225BD06C025B52061A0
S1131E5025BD25B5206225BDFC01808583BD89B7DC
S1131E60806889BF81E0089580E0089580E0089546
S1131E7080E0089580E0089580E0089580E008956A
S1131E8080E0089580E008951F920F920FB60F929C
S1131E9011242F933F934F935F936F937F938F936B
S1131EA09F93AF93BF93EF93FF9380919E00909184
S1131EB09F00892B41F088B78E7F88BFE0919E00F8
S1131EC0F0919F000995FF91EF91BF91AF919F9180
S1131ED08F917F916F915F914F913F912F910F90CF
S1131EE00FBE0F901F9018951F920F920FB60F926E
S1131EF011242F933F934F935F936F937F938F930B
S1131F009F93AF93BF93EF93FF9380919E00909123
S1131F109F00892B41F088B78D7F88BFE0919E0098
S1131F20F0919F000995FF91EF91BF91AF919F911F
S1131F308F917F916F915F914F913F912F910F906E
S1131F400FBE0F901F9018951F920F920FB60F920D
S1131F5011242F933F934F935F936F937F938F93AA
S1131F609F93AF93BF93EF93FF9380919C009091C5
S1131F709D00892B41F088B78B7F88BFE0919C003E
S1131F80F0919D000995FF91EF91BF91AF919F91C1
S1131F908F917F916F915F914F913F912F910F900E
S1131FA00FBE0F901F9018951F920F920FB60F92AD
S1131FB011242F933F934F935F936F937F938F934A
S1131FC09F93AF93BF93EF93FF9380919C00909165
S1131FD09D00892B41F088B78F7E88BFE0919C00DB
S1131FE0F0919D000995FF91EF91BF91AF919F9161
S1131FF08F917F916F915F914F913F912F910F90AE
S11320000FBE0F901F9018951F920F920FB60F924C
S113201011242F933F934F935F936F937F938F93E9
S11320209F93AF93BF93EF93FF9380919A00909106
S11320309B00892B41F088B78F7B88BFE0919A0081
S1132040F0919B000995FF91EF91BF91AF919F9102
S11320508F917F916F915F914F913F912F910F904D
S11320600FBE0F901F9018951F920F920FB60F92EC
S113207011242F933F934F935F936F937F938F9389
S11320809F93AF93BF93EF93FF9380919A009091A6
S11320909B00892B41F088B78F7788BFE0919A0025
S11320A0F0919B000995FF91EF91BF91AF919F91A2
S11320B08F917F916F915F914F913F912F910F90ED
S11320C00FBE0F901F9018956330D0F40097D1F095
S11320D0613051F018F0623069F016C090939F009F
S11320E080939E0081E0089590939D0080939C00CE
S11320F081E0089590939B0080939A0081E0089575
S113210080E0089580E0089580E00895CF93DF9300
S1132110009709F448C0FC012081233008F045C031
S11321203281343008F043C03381343008F041C088
S11321303481343008F03FC0EC01213099F018F0BC
S1132140223029F13AC012BE13BE1CBE19BE18BEFD
S1132150868182BFCF010E94B10C698180E00E9418
S11321606E0B2CC01CBC1DBC1FBC1EBC1BBC1ABCF3
S113217019BE18BE86818CBD868197818DBDCF0125
S11321800E94B10C698181E00E946E0B17C014BCDF
S113219015BC13BC19BE18BE868184BDCF010E9434
S11321A0B10C81600BC080E009C080E007C080E012
S11321B005C080E003C080E001C081E0DF91CF91E1
S11321C00895009791F0FC012081233080F422814E
S11321D0243078F42381243070F42481243068F48A
S11321E0618182E00E946E0B089580E0089580E092
S11321F0089580E0089580E0089580E00895EE0F4A
S1112200FF1F0590F491E02D0994F894FFCF90
S113220E0007020000000000610003010300030345
S113221E0000030200000203000202000201000299
S113222E00003B003800350032003A00370034001D
S105223E310069
S9030000FC
