:100000000C9432000C94B8010C94E4010C9410028E
:100010000C944F000C944F000C944F000C944F0024
:100020000C944F000C944F000C944F000C944F0014
:100030000C944F000C944F000C944F000C944F0004
:100040000C944F000C944F000C944F000C944F00F4
:100050000C944F008F0095009B00A100A700AD00FD
:10006000B300B90011241FBECFE5D8E0DEBFCDBF7D
:1000700010E0A0E6B0E0EEE8F6E002C005900D92D8
:10008000A438B107D9F720E0A4E8B0E001C01D9280
:10009000AB38B207E1F70E942E010C9445030C9493
:1000A0000000809184008F5F809384000895CF9337
:1000B0008FB780688FBF8FE690E00E94DF00C82F67
:1000C0008CE690E00E94DF00C82B89E690E00E9459
:1000D000DF00C82B86E690E00E94DF00C82B82E696
:1000E00090E00E94C300C82B80E690E00E94D602F8
:1000F0008C2BCF910895CF9360E081E590E00E9432
:100100003C02C82FE09184008E2F90E0FC013197D3
:10011000E830F105A8F5E65DFF4F0C943F038FE64C
:1001200090E00E940801C82B2BC08CE690E00E9452
:100130000801C82B25C089E690E00E940801C82B61
:100140001FC086E690E00E940801C82B19C08FE608
:1001500090E00E941B01C82B13C08CE690E00E9427
:100160001B01C82B0DC089E690E00E941B01C82B23
:1001700007C086E690E00E941B01C82B1092840005
:100180008C2FCF910895CF93DF93009781F0FC01DE
:100190002181283070F42081243068F4EC0160E083
:1001A0000E94370160E0CE010E94770105C080E027
:1001B00003C080E001C080E0DF91CF910895CF932C
:1001C000DF930097D9F0FC0121812830C8F4208109
:1001D0002430C0F4EC0161E00E9437018A81882359
:1001E00019F0813031F010C060E0CE010E9477013B
:1001F0000CC061E0CE010E94770107C080E005C01D
:1002000080E003C080E001C080E0DF91CF910895DD
:10021000009759F0FC012181283048F420812430D6
:1002200040F461E00E947701089580E0089580E045
:10023000089580E00895009759F0FC01218128304D
:1002400048F42081243040F460E00E947701089552
:1002500080E0089580E0089580E008950E945700AE
:10026000809372000E947B0080937200FBCF009706
:10027000B1F1DC0111962C911197283090F5EC9199
:10028000E43088F56623B1F0613079F5F0E0EE0FE7
:10029000FF1FE558FF4F0190F081E02D308181E094
:1002A00090E002C0880F991F2A95E2F7832B808384
:1002B00081E00895F0E0EE0FFF1FE558FF4F019039
:1002C000F081E02D308181E090E002C0880F991F1D
:1002D0002A95E2F780958323808381E0089580E06A
:1002E000089580E0089580E0089580E008950097E3
:1002F000B9F1DC0111962C911197283098F5EC9109
:10030000E43090F5662319F06130B1F02FC0F0E0D1
:10031000EE0FFF1FED58FF4F0190F081E02D30816F
:1003200081E090E002C0880F991F2A95E2F780953E
:100330008323808381E00895F0E0EE0FFF1FED58E6
:10034000FF4F0190F081E02D308181E090E002C00C
:10035000880F991F2A95E2F7832B808381E0089507
:1003600080E0089580E0089580E0089580E0089599
:100370001F920F920FB60F9211242F933F934F931A
:100380005F936F937F938F939F93AF93BF93EF93FD
:10039000FF938AB780648ABFE0918900F0918A0058
:1003A000309709F00995FF91EF91BF91AF919F911F
:1003B0008F917F916F915F914F913F912F910F900E
:1003C0000FBE0F901F9018951F920F920FB60F92AD
:1003D00011242F933F934F935F936F937F938F934A
:1003E0009F93AF93BF93EF93FF938AB780688ABFC1
:1003F000E0918700F0918800309709F00995FF910E
:10040000EF91BF91AF919F918F917F916F915F918C
:100410004F913F912F910F900FBE0F901F90189505
:100420001F920F920FB60F9211242F933F934F9369
:100430005F936F937F938F939F93AF93BF93EF934C
:10044000FF938AB780688ABFE0918500F0918600AB
:10045000309709F00995FF91EF91BF91AF919F916E
:100460008F917F916F915F914F913F912F910F905D
:100470000FBE0F901F9018950097D1F06330D0F405
:10048000613051F018F0623069F016C090938A0024
:100490008093890081E0089590938800809387007D
:1004A00081E00895909386008093850081E008950F
:1004B00080E0089580E0089580E00895633008F0BA
:1004C00069C0853008F068C0613069F120F06230A1
:1004D00009F451C063C0813071F028F0823099F086
:1004E0008330C9F05DC085B78E7F85BF85B78D7FAE
:1004F00085BF81E0089585B7816085BF85B78D7F11
:1005000085BF81E0089585B78E7F85BF85B78260FE
:1005100085BF81E0089585B7816085BF85B782601A
:1005200085BF81E00895813071F028F0823099F024
:100530008330C9F037C085B78B7F85BF85B7877F8C
:1005400085BF81E0089585B7846085BF85B7877FC3
:1005500085BF81E0089585B78B7F85BF85B78860AB
:1005600085BF81E0089585B7846085BF85B78860C1
:1005700085BF81E00895823019F0833031F014C0D6
:1005800084B78F7B84BF81E0089584B7806484BF83
:1005900081E0089580E0089580E0089580E0089566
:1005A00080E0089580E0089580E008951F93CF9340
:1005B000DF9300D0CDB7DEB7009709F457C0FC0138
:1005C0002181233008F054C02130E9F018F02230A6
:1005D00091F14AC02BB72F7B2BBF2AB720642ABFCB
:1005E00060E080810E945E02182F83E0898382E0B0
:1005F0008A8360E0CE0101960E943701812B9BB770
:1006000090649BBF36C02BB72F772BBF2AB72068CB
:100610002ABF61E080810E945E02182F83E08983F7
:100620008A8360E0CE0101960E943701812B9BB73F
:1006300090689BBF1EC02BB72F7D2BBF2AB72062AF
:100640002ABF62E080810E945E02182F88B38983EE
:1006500082E08A8360E0CE0101960E943701812BFF
:100660009BB790689BBF05C080E003C080E001C0DD
:1006700080E00F900F90DF91CF911F910895EE0FC2
:0E068000FF1F0590F491E02D0994F894FFCF30
:10068E000300030200000203000202000201000246
:10069E000000013B003800350032003A00370034CC
:0406AE000031000017
:00000001FF
