:100000000C944E000C94220A0C944E0A0C947A0A1A
:100010000C946C100C943C100C946B000C940C1011
:100020000C946B000C94DC0F0C94AC0F0C947C0FB4
:100030000C946B000C946B000C946B000C946B0094
:100040000C946B000C946B000C946B000C946B0084
:100050000C946B00E900A7019102AD03FC044B0670
:100060009A07E908C20BCD0BD80BE60CE30BE60CA4
:10007000EE0BF90B040C0F0C250C300C3B0CE80CB0
:10008000460CE80C510C5C0C670C720C880C930C41
:100090009E0CA90CB40CBF0CCA0CD50C11241FBEAD
:1000A000CFE5D8E0DEBFCDBF10E0A0E6B0E0E0E3F2
:1000B000F2E202C005900D92A039B107D9F720E015
:1000C000A0E9B0E001C01D92AA3AB207E1F70E9490
:1000D0009C090C9416110C94000080919000909152
:1000E00091000196909391008093900080919000F0
:1000F000909191000A9720F0109291001092900038
:1001000008951092910010929000809193008F5F5B
:100110008093930008951092910010929000809126
:1001200092008F5F809392000895CF938FB780687D
:100130008FBF81E790E00E941D09C82F8EE690E0F6
:100140000E941D09C82B8BE690E00E941D09C82B58
:1001500088E690E00E941D09C82B84E690E00E948A
:100160000109C82B80E690E00E940109C82B8EE7A8
:1001700090E00E94400BC82B8CE790E00E94400B5F
:10018000C82B8DE690E090937B0080937A0084E703
:1001900090E00E946C098C2BCF910895CF9360E082
:1001A00081E890E00E94A60A61E08BE890E00E945E
:1001B000A60AC82FE09193008E2F90E0FC013197A2
:1001C000E830F10510F00C94FE08E65DFF4F0C944A
:1001D00010116091740087E00E949109C82F8091EE
:1001E0009200823009F466C030F4882311F1813026
:1001F00009F43FC0F6C7833009F47DC0843009F4A8
:100200009BC0EFC78091900090919100892B31F4B1
:1002100081E790E00E944609C82B0BC080919000B6
:1002200090919100892B29F081E790E00E94590973
:10023000C82B809192008111E1C780919300813099
:1002400009F3DCC78091900090919100029730F4FF
:1002500081E790E00E944609C82B0BC08091900076
:1002600090919100029728F081E790E00E9459094F
:10027000C82B80919200813009F0C0C78091930013
:10028000813001F3BBC7809190009091910003975A
:1002900030F481E790E00E944609C82B0BC08091A2
:1002A000900090919100039728F081E790E00E94E0
:1002B0005909C82B80919200823009F09FC7809124
:1002C0009300813001F39AC7809190009091910042
:1002D000059730F481E790E00E944609C82B0BC0D7
:1002E0008091900090919100059728F081E790E02F
:1002F0000E945909C82B80919200833009F07EC773
:1003000080919300813001F379C7809190009091A2
:100310009100089730F481E790E00E944609C82BCD
:100320000BC08091900090919100089728F081E790
:1003300090E00E945909C82B80919200843021F4EA
:1003400080919300813009F31092920057C78091F9
:100350009200823009F484C030F4882361F1813046
:1003600009F453C040C7833009F4A5C0843009F4B0
:10037000CDC039C78091900090919100892B59F49C
:1003800081E790E00E944609C82B8EE690E00E942B
:100390004609C82B10C08091900090919100892B44
:1003A00051F081E790E00E945909C82B8EE690E059
:1003B0000E945909C82B8091920081111FC780911A
:1003C00093008230B9F21AC7809190009091910009
:1003D000029758F481E790E00E944609C82B8EE608
:1003E00090E00E944609C82B10C080919000909127
:1003F0009100029750F081E790E00E945909C82BC4
:100400008EE690E00E945909C82B809192008130BD
:1004100009F0F4C6809193008230B1F2EFC680916A
:10042000900090919100039758F481E790E00E942A
:100430004609C82B8EE690E00E944609C82B10C0E2
:100440008091900090919100039750F081E790E0A7
:100450000E945909C82B8EE690E00E945909C82BCA
:1004600080919200823009F0C9C680919300823059
:10047000B1F2C4C68091900090919100059758F414
:1004800081E790E00E944609C82B8EE690E00E942A
:100490004609C82B10C0809190009091910005975B
:1004A00050F081E790E00E945909C82B8EE690E059
:1004B0000E945909C82B80919200833009F09EC692
:1004C000809193008230B1F299C680919000909112
:1004D0009100089758F481E790E00E944609C82BE4
:1004E0008EE690E00E944609C82B10C080919000D3
:1004F00090919100089750F081E790E00E9459098F
:10050000C82B8EE690E00E945909C82B809192007A
:10051000843021F4809193008230B9F210929200DD
:100520006DC680919200823009F4A2C030F4882315
:10053000B1F1813009F467C058C6833009F4CDC0E9
:10054000843009F4FFC051C68091900090919100D1
:10055000892B81F481E790E00E944609C82B8EE642
:1005600090E00E944609C82B8BE690E00E94460965
:10057000C82B15C08091900090919100892B79F043
:1005800081E790E00E945909C82B8EE690E00E9416
:100590005909C82B8BE690E00E945909C82B80911D
:1005A000920081112BC680919300833069F226C698
:1005B0008091900090919100029780F481E790E003
:1005C0000E944609C82B8EE690E00E944609C82B7F
:1005D0008BE690E00E944609C82B15C080919000E0
:1005E00090919100029778F081E790E00E9459097C
:1005F000C82B8EE690E00E945909C82B8BE690E04C
:100600000E945909C82B80919200813009F0F6C5EB
:1006100080919300833061F2F1C5809190009091B8
:100620009100039780F481E790E00E944609C82B6F
:100630008EE690E00E944609C82B8BE690E00E946F
:100640004609C82B15C080919000909191000397A6
:1006500078F081E790E00E945909C82B8EE690E07F
:100660000E945909C82B8BE690E00E945909C82BBB
:1006700080919200823009F0C1C58091930083304F
:1006800061F2BCC58091900090919100059780F433
:1006900081E790E00E944609C82B8EE690E00E9418
:1006A0004609C82B8BE690E00E944609C82B15C06E
:1006B0008091900090919100059778F081E790E00B
:1006C0000E945909C82B8EE690E00E945909C82B58
:1006D0008BE690E00E945909C82B809192008330EC
:1006E00009F08CC580919300833061F287C58091B9
:1006F000900090919100089780F481E790E00E942B
:100700004609C82B8EE690E00E944609C82B8BE66E
:1007100090E00E944609C82B15C0809190009091EE
:100720009100089778F081E790E00E945909C82B62
:100730008EE690E00E945909C82B8BE690E00E945B
:100740005909C82B80919200843021F48091930044
:10075000833069F21092920051C5809192008230EC
:1007600009F4C1C038F4882309F440C0813009F489
:100770007BC03DC5833009F4F5C0843009F431C134
:1007800036C58091900090919100892BA9F481E762
:1007900090E00E944609C82B8EE690E00E94460930
:1007A000C82B8BE690E00E944609C82B88E690E0B3
:1007B0000E944609C82B1AC0809190009091910028
:1007C000892BA1F081E790E00E945909C82B8EE6A1
:1007D00090E00E945909C82B8BE690E00E945909CD
:1007E000C82B88E690E00E945909C82B809192009E
:1007F000811104C580919300843019F2FFC4809167
:100800009000909191000297A8F481E790E00E94F7
:100810004609C82B8EE690E00E944609C82B8BE65D
:1008200090E00E944609C82B88E690E00E944609A5
:10083000C82B1AC080919000909191000297A0F06F
:1008400081E790E00E945909C82B8EE690E00E9453
:100850005909C82B8BE690E00E945909C82B88E6FD
:1008600090E00E945909C82B80919200813009F0D4
:10087000C5C480919300843011F2C0C4809190006F
:10088000909191000397A8F481E790E00E944609B7
:10089000C82B8EE690E00E944609C82B8BE690E0BC
:1008A0000E944609C82B88E690E00E944609C82BA2
:1008B0001AC080919000909191000397A0F081E779
:1008C00090E00E945909C82B8EE690E00E945909D9
:1008D000C82B8BE690E00E945909C82B88E690E06F
:1008E0000E945909C82B80919200823009F086C479
:1008F00080919300843011F281C480919000909196
:1009000091000597A8F481E790E00E944609C82B62
:100910008EE690E00E944609C82B8BE690E00E948C
:100920004609C82B88E690E00E944609C82B1AC0E9
:1009300080919000909191000597A0F081E790E060
:100940000E945909C82B8EE690E00E945909C82BD5
:100950008BE690E00E945909C82B88E690E00E943F
:100960005909C82B80919200833009F047C48091C7
:100970009300843011F242C48091900090919100D4
:100980000897A8F481E790E00E944609C82B8EE6FC
:1009900090E00E944609C82B8BE690E00E94460931
:1009A000C82B88E690E00E944609C82B1AC08091A7
:1009B0009000909191000897A0F081E790E00E944C
:1009C0005909C82B8EE690E00E945909C82B8BE686
:1009D00090E00E945909C82B88E690E00E945909CE
:1009E000C82B80919200843021F480919300843050
:1009F00019F21092920002C480919200823009F4A0
:100A0000C1C038F4882309F440C0813009F47BC0A8
:100A1000F0C3833009F4F5C0843009F431C1E9C36F
:100A20008091900090919100892BA9F481E790E04A
:100A30000E945909C82B8EE690E00E944609C82BF7
:100A40008BE690E00E944609C82B88E690E00E9461
:100A50004609C82B1AC08091900090919100892B73
:100A6000A1F081E790E00E945909C82B8EE690E042
:100A70000E945909C82B8BE690E00E945909C82BA7
:100A800088E690E00E945909C82B8091920081115C
:100A9000B5C380919300853019F2B0C38091900066
:100AA000909191000297A8F481E790E00E94590983
:100AB000C82B8EE690E00E944609C82B8BE690E09A
:100AC0000E944609C82B88E690E00E944609C82B80
:100AD0001AC080919000909191000297A0F081E758
:100AE00090E00E945909C82B8EE690E00E945909B7
:100AF000C82B8BE690E00E945909C82B88E690E04D
:100B00000E945909C82B80919200813009F076C368
:100B100080919300853011F271C380919000909183
:100B200091000397A8F481E790E00E945909C82B2F
:100B30008EE690E00E944609C82B8BE690E00E946A
:100B40004609C82B88E690E00E944609C82B1AC0C7
:100B500080919000909191000397A0F081E790E040
:100B60000E945909C82B8EE690E00E945909C82BB3
:100B70008BE690E00E945909C82B88E690E00E941D
:100B80005909C82B80919200823009F037C38091B7
:100B90009300853011F232C38091900090919100C2
:100BA0000597A8F481E790E00E945909C82B8EE6CA
:100BB00090E00E944609C82B8BE690E00E9446090F
:100BC000C82B88E690E00E944609C82B1AC0809185
:100BD0009000909191000597A0F081E790E00E942D
:100BE0005909C82B8EE690E00E945909C82B8BE664
:100BF00090E00E945909C82B88E690E00E945909AC
:100C0000C82B80919200833009F0F8C28091930044
:100C1000853011F2F3C28091900090919100089775
:100C2000A8F481E790E00E945909C82B8EE690E075
:100C30000E944609C82B8BE690E00E944609C82B0B
:100C400088E690E00E944609C82B1AC08091900067
:100C5000909191000897A0F081E790E00E945909D7
:100C6000C82B8EE690E00E945909C82B8BE690E0D5
:100C70000E945909C82B88E690E00E945909C82BA8
:100C800080919200843021F480919300853019F294
:100C900010929200B3C280919200823009F4C1C0D8
:100CA00038F4882309F440C0813009F47BC0A3C222
:100CB000833009F4F5C0843009F431C19CC28091BD
:100CC000900090919100892BA9F481E790E00E9417
:100CD0005909C82B8EE690E00E945909C82B8BE673
:100CE00090E00E944609C82B88E690E00E944609E1
:100CF000C82B1AC08091900090919100892BA1F08F
:100D000081E790E00E945909C82B8EE690E00E948E
:100D10005909C82B8BE690E00E945909C82B88E638
:100D200090E00E945909C82B80919200811166C2FF
:100D300080919300863019F261C280919000909169
:100D400091000297A8F481E790E00E945909C82B0E
:100D50008EE690E00E945909C82B8BE690E00E9435
:100D60004609C82B88E690E00E944609C82B1AC0A5
:100D700080919000909191000297A0F081E790E01F
:100D80000E945909C82B8EE690E00E945909C82B91
:100D90008BE690E00E945909C82B88E690E00E94FB
:100DA0005909C82B80919200813009F027C28091A7
:100DB0009300863011F222C28091900090919100B0
:100DC0000397A8F481E790E00E945909C82B8EE6AA
:100DD00090E00E945909C82B8BE690E00E944609DA
:100DE000C82B88E690E00E944609C82B1AC0809163
:100DF0009000909191000397A0F081E790E00E940D
:100E00005909C82B8EE690E00E945909C82B8BE641
:100E100090E00E945909C82B88E690E00E94590989
:100E2000C82B80919200823009F0E8C18091930034
:100E3000863011F2E3C18091900090919100059766
:100E4000A8F481E790E00E945909C82B8EE690E053
:100E50000E945909C82B8BE690E00E944609C82BD6
:100E600088E690E00E944609C82B1AC08091900045
:100E7000909191000597A0F081E790E00E945909B8
:100E8000C82B8EE690E00E945909C82B8BE690E0B3
:100E90000E945909C82B88E690E00E945909C82B86
:100EA00080919200833009F0A9C18091930086302F
:100EB00011F2A4C180919000909191000897A8F43C
:100EC00081E790E00E945909C82B8EE690E00E94CD
:100ED0005909C82B8BE690E00E944609C82B88E68A
:100EE00090E00E944609C82B1AC080919000909112
:100EF00091000897A0F081E790E00E945909C82B63
:100F00008EE690E00E945909C82B8BE690E00E9483
:100F10005909C82B88E690E00E945909C82B809196
:100F20009200843021F480919300863019F210925F
:100F3000920064C180919200823009F4C1C038F4FB
:100F4000882309F440C0813009F47BC056C1833046
:100F500009F4F5C0843009F431C14FC1809190008B
:100F600090919100892BA9F481E790E00E945909A2
:100F7000C82B8EE690E00E945909C82B8BE690E0C2
:100F80000E945909C82B88E690E00E944609C82BA8
:100F90001AC08091900090919100892BA1F081E777
:100FA00090E00E945909C82B8EE690E00E945909F2
:100FB000C82B8BE690E00E945909C82B88E690E088
:100FC0000E945909C82B80919200811117C180910C
:100FD0009300873019F212C1809190009091910096
:100FE0000297A8F481E790E00E945909C82B8EE689
:100FF00090E00E945909C82B8BE690E00E945909A5
:10100000C82B88E690E00E944609C82B1AC0809140
:101010009000909191000297A0F081E790E00E94EB
:101020005909C82B8EE690E00E945909C82B8BE61F
:1010300090E00E945909C82B88E690E00E94590967
:10104000C82B80919200813009F0D8C08091930024
:10105000873011F2D3C08091900090919100039756
:10106000A8F481E790E00E945909C82B8EE690E031
:101070000E945909C82B8BE690E00E945909C82BA1
:1010800088E690E00E944609C82B1AC08091900023
:10109000909191000397A0F081E790E00E94590998
:1010A000C82B8EE690E00E945909C82B8BE690E091
:1010B0000E945909C82B88E690E00E945909C82B64
:1010C00080919200823009F099C08091930087301E
:1010D00011F294C080919000909191000597A8F42E
:1010E00081E790E00E945909C82B8EE690E00E94AB
:1010F0005909C82B8BE690E00E945909C82B88E655
:1011000090E00E944609C82B1AC0809190009091EF
:1011100091000597A0F081E790E00E945909C82B43
:101120008EE690E00E945909C82B8BE690E00E9461
:101130005909C82B88E690E00E945909C82B809174
:101140009200833009F05AC080919300873011F2E9
:1011500055C080919000909191000897A8F481E784
:1011600090E00E945909C82B8EE690E00E94590930
:10117000C82B8BE690E00E945909C82B88E690E0C6
:101180000E944609C82B1AC080919000909191004E
:101190000897A0F081E790E00E945909C82B8EE6DD
:1011A00090E00E945909C82B8BE690E00E945909F3
:1011B000C82B88E690E00E945909C82B80919200C4
:1011C000843021F480919300873019F210929200BC
:1011D00015C088E690E00E945909C82B1092930030
:1011E0000DC0C0E00BC0C0E009C0C0E007C0C0E057
:1011F00005C0C0E003C0C0E001C0C0E08C2FCF91AB
:101200000895CF93DF93009781F0FC01218128306E
:1012100070F42081243068F4EC0160E00E94A109A0
:1012200060E0CE010E94E10905C080E003C080E0DB
:1012300001C080E0DF91CF910895CF93DF930097B5
:10124000D9F0FC0121812830C8F420812430C0F479
:10125000EC0161E00E94A1098A81882319F08130A4
:1012600031F010C060E0CE010E94E1090CC061E0E5
:10127000CE010E94E10907C080E005C080E003C004
:1012800080E001C080E0DF91CF910895009759F090
:10129000FC012181283048F42081243040F461E0B1
:1012A0000E94E109089580E0089580E0089580E0BB
:1012B0000895009759F0FC012181283048F42081DD
:1012C000243040F460E00E94E109089580E0089530
:1012D00080E0089580E008951F93CF93DF93FC0191
:1012E00020812330C8F4EC01E4E9F0E02083898117
:1012F00082838A819B81978386838C819D8191875C
:101300008087CF010E94BE10182F68818E819F8137
:101310000E949C10812B01C080E0DF91CF911F9132
:1013200008958A3028F4633028F40E940211089549
:1013300080E0089580E008950E9495000E94CE000C
:10134000FDCF0097B1F1DC0111962C911197283057
:1013500090F5EC91E43088F56623B1F0613079F5D1
:10136000F0E0EE0FFF1FE857FF4F0190F081E02DF6
:10137000308181E090E002C0880F991F2A95E2F742
:10138000832B808381E00895F0E0EE0FFF1FE85784
:10139000FF4F0190F081E02D308181E090E002C0AC
:1013A000880F991F2A95E2F780958323808381E037
:1013B000089580E0089580E0089580E0089580E039
:1013C00008950097B9F1DC0111962C9111972830FE
:1013D00098F5EC91E43090F5662319F06130B1F0A6
:1013E0002FC0F0E0EE0FFF1FE058FF4F0190F0819B
:1013F000E02D308181E090E002C0880F991F2A958E
:10140000E2F780958323808381E00895F0E0EE0F7A
:10141000FF1FE058FF4F0190F081E02D308181E007
:1014200090E002C0880F991F2A95E2F7832B8083F2
:1014300081E0089580E0089580E0089580E00895B7
:1014400080E008951F920F920FB60F9211242F93F0
:101450003F934F935F936F937F938F939F93AF933C
:10146000BF93EF93FF938AB780648ABFE091A20095
:10147000F091A300309709F00995FF91EF91BF918A
:10148000AF919F918F917F916F915F914F913F911C
:101490002F910F900FBE0F901F9018951F920F92D3
:1014A0000FB60F9211242F933F934F935F936F9337
:1014B0007F938F939F93AF93BF93EF93FF938AB7DD
:1014C00080688ABFE091A000F091A100309709F0F8
:1014D0000995FF91EF91BF91AF919F918F917F916E
:1014E0006F915F914F913F912F910F900FBE0F9091
:1014F0001F9018951F920F920FB60F9211242F93E1
:101500003F934F935F936F937F938F939F93AF938B
:10151000BF93EF93FF938AB780688ABFE0919E00E4
:10152000F0919F00309709F00995FF91EF91BF91DD
:10153000AF919F918F917F916F915F914F913F916B
:101540002F910F900FBE0F901F9018950097D1F01C
:101550006330D0F4613051F018F0623069F016C099
:101560009093A3008093A20081E008959093A1003E
:101570008093A00081E0089590939F0080939E0047
:1015800081E0089580E0089580E0089580E0089566
:10159000633008F069C0853008F068C0613069F1D7
:1015A00020F0623009F451C063C0813071F028F03E
:1015B000823099F08330C9F05DC085B78E7F85BFDA
:1015C00085B78D7F85BF81E0089585B7816085BF30
:1015D00085B78D7F85BF81E0089585B78E7F85BFF4
:1015E00085B7826085BF81E0089585B7816085BF3A
:1015F00085B7826085BF81E00895813071F028F061
:10160000823099F08330C9F037C085B78B7F85BFB2
:1016100085B7877F85BF81E0089585B7846085BFE2
:1016200085B7877F85BF81E0089585B78B7F85BFAC
:1016300085B7886085BF81E0089585B7846085BFE0
:1016400085B7886085BF81E00895823019F08330C6
:1016500031F014C084B78F7B84BF81E0089584B7D4
:10166000806484BF81E0089580E0089580E008955B
:1016700080E0089580E0089580E0089580E0089576
:101680001F93CF93DF9300D0CDB7DEB7009709F457
:1016900057C0FC012181233008F054C02130E9F00B
:1016A00018F0223091F14AC02BB72F7B2BBF2AB7FD
:1016B00020642ABF60E080810E94C80A182F83E05E
:1016C000898382E08A8360E0CE0101960E94A109AD
:1016D000812B9BB790649BBF36C02BB72F772BBF56
:1016E0002AB720682ABF61E080810E94C80A182FAB
:1016F00083E089838A8360E0CE0101960E94A1097C
:10170000812B9BB790689BBF1EC02BB72F7D2BBF33
:101710002AB720622ABF62E080810E94C80A182F7F
:1017200088B3898382E08A8360E0CE0101960E94BB
:10173000A109812B9BB790689BBF05C080E003C0C7
:1017400080E001C080E00F900F90DF91CF911F915A
:101750000895833008F034C16A3008F033C1813015
:1017600009F468C020F0823009F4C7C02DC1862F6B
:1017700090E08A30910508F029C1FC01EE5CFF4F32
:101780000C94101183B78E7F83BF83B78D7F83BF87
:1017900083B78B7F83BF81E0089583B7816083BF68
:1017A00083B78D7F83BF83B78B7F83BF81E008952D
:1017B00083B78E7F83BF83B7826083BF83B78B7FFE
:1017C00083BF81E0089583B7816083BF83B7826060
:1017D00083BF83B78B7F83BF81E0089583B78E7FFC
:1017E00083BF83B78D7F83BF83B7846083BF81E06E
:1017F000089583B7816083BF83B78D7F83BF83B72D
:10180000846083BF81E0089583B78E7F83BF83B7F1
:10181000826083BF83B7846083BF81E0089583B70C
:10182000816083BF83B7826083BF83B7846083BFD7
:1018300081E00895862F90E08A30910508F0C8C0B5
:10184000FC01E45CFF4F0C9410118EB58E7F8EBDB1
:101850008EB58D7F8EBD8EB58B7F8EBD81E0089558
:101860008EB581608EBD8EB58D7F8EBD8EB58B7F22
:101870008EBD81E008958EB58E7F8EBD8EB582605F
:101880008EBD8EB58B7F8EBD81E008958EB5816053
:101890008EBD8EB582608EBD8EB58B7F8EBD81E094
:1018A00008958EB58E7F8EBD8EB58D7F8EBD8EB523
:1018B00084608EBD81E008958EB581608EBD8EB549
:1018C0008D7F8EBD8EB584608EBD81E008958EB50E
:1018D0008E7F8EBD8EB582608EBD8EB584608EBDCE
:1018E00081E008958EB581608EBD8EB582608EBD1B
:1018F0008EB584608EBD81E00895862F90E088309B
:10190000910508F067C0FC01EA5BFF4F0C941011D1
:1019100085B58E7F85BD85B58D7F85BD85B58B7F72
:1019200085BD81E0089585B5816085BD85B58D7FD4
:1019300085BD85B58B7F85BD81E0089585B58E7F9A
:1019400085BD85B5826085BD85B58B7F85BD81E010
:10195000089585B5816085BD85B5826085BD85B5F5
:101960008B7F85BD81E0089585B58E7F85BD85B56A
:101970008D7F85BD85B5846085BD81E0089585B581
:10198000816085BD85B58D7F85BD85B5846085BD4C
:1019900081E0089585B58E7F85BD85B5826085BD62
:1019A00085B5846085BD81E0089585B5816085BD7C
:1019B00085B5826085BD85B5846085BD81E008956B
:1019C00080E0089580E0089581E0089580E0089522
:1019D00080E0089580E00895009709F47DC2FC013D
:1019E0002081233008F07AC23281343008F078C286
:1019F0004381443008F076C2213009F4A6C020F0BB
:101A0000223009F4C8C170C23130D9F030F0323020
:101A100009F465C03330E1F169C283B7806883BFE0
:101A200083B78F7B83BF83B7877F83BF83B78F7E67
:101A300083BF83B78F7D83BF89B7816089BF81E012
:101A4000089523B7206423BF23B7277F23BFFC015A
:101A50002581223059F0233081F0211114C023B7A1
:101A60002F7E23BF23B72F7D23BF0DC023B72F7E2B
:101A700023BF23B7206223BF06C023B7206123BF43
:101A800023B7206223BFFC0180858CBF81E00895CD
:101A900023B7206423BF23B7286023BFFC01248120
:101AA000223059F0233081F0211114C023B72F7E4A
:101AB00023BF23B72F7D23BF0DC023B72F7E23BFA6
:101AC00023B7206223BF06C023B7206123BF23B7FB
:101AD000206223BFFC0180858CBF81E0089523B77D
:101AE000206823BF23B72F7B23BF23B7286023BFE2
:101AF000FC012381213069F028F0223089F0233065
:101B0000B1F01BC023B72F7E23BF23B72F7D23BF88
:101B100014C023B7206123BF23B72F7D23BF0DC07F
:101B200023B72F7E23BF23B7206223BF06C023B76E
:101B3000206123BF23B7206223BFFC0180858CBFB7
:101B400089B7826089BF81E00895313059F138F05A
:101B5000323009F4C7C0333009F474C0C9C18FB53D
:101B600088608FBD8FB584608FBD8FB58E7F8FBD30
:101B70008FB58D7F8FBD8EB5877F8EBD8EB58F7EE5
:101B80008EBD8FB58F7B8FBD8FB58F778FBD8FB596
:101B90008F7E8FBD8FB58F7D8FBD89B7846089BFE4
:101BA00081E008952FB521602FBD2FB52D7F2FBD6A
:101BB0002EB5277F2EBD2EB52F7E2EBDFC01258193
:101BC000213099F028F02230E9F0233041F133C080
:101BD0002FB52F7B2FBD2FB52F772FBD2FB52F7E84
:101BE0002FBD2FB52F7D2FBD26C02FB520642FBD53
:101BF0002FB52F772FBD2FB520612FBD2FB52F7D8E
:101C00002FBD19C02FB52F7B2FBD2FB520682FBD3D
:101C10002FB52F7E2FBD2FB520622FBD0CC02FB545
:101C200020642FBD2FB520682FBD2FB520612FBD9B
:101C30002FB520622FBDFC01808591859BBD8ABD9B
:101C400081E008952FB521602FBD2FB52D7F2FBDC9
:101C50002EB528602EBD2EB52F7E2EBDFC01248111
:101C6000213099F028F02230E9F0233041F133C0DF
:101C70002FB52F7B2FBD2FB52F772FBD2FB52F7EE3
:101C80002FBD2FB52F7D2FBD26C02FB520642FBDB2
:101C90002FB52F772FBD2FB520612FBD2FB52F7DED
:101CA0002FBD19C02FB52F7B2FBD2FB520682FBD9D
:101CB0002FB52F7E2FBD2FB520622FBD0CC02FB5A5
:101CC00020642FBD2FB520682FBD2FB520612FBDFB
:101CD0002FB520622FBDFC01808591859BBD8ABDFB
:101CE00081E008952FB528602FBD2FB524602FBD4A
:101CF0002FB52E7F2FBD2FB52D7F2FBD2EB5286080
:101D00002EBD2EB52F7E2EBDFC012381213099F0F2
:101D100028F02230E9F0233041F133C02FB52F7B7A
:101D20002FBD2FB52F772FBD2FB52F7E2FBD2FB5F0
:101D30002F7D2FBD26C02FB520642FBD2FB52F7747
:101D40002FBD2FB520612FBD2FB52F7D2FBD19C001
:101D50002FB52F7B2FBD2FB520682FBD2FB52F7E20
:101D60002FBD2FB520622FBD0CC02FB520642FBD15
:101D70002FB520682FBD2FB520612FBD2FB5206254
:101D80002FBDFC01808591859BBD8ABD89B780618F
:101D900089BF81E008953130D9F030F0323009F454
:101DA00065C03330E1F1A6C085B5806885BD85B5D5
:101DB0008F7B85BD85B5877F85BD85B58F7E85BDCC
:101DC00085B58F7D85BD89B7806489BF81E0089521
:101DD00025B5206425BD25B5277F25BDFC012581BE
:101DE000223059F0233081F0211114C025B52F7E07
:101DF00025BD25B52F7D25BD0DC025B52F7E25BD63
:101E000025B5206225BD06C025B5206125BD25B5B7
:101E1000206225BDFC01808583BD81E0089525B544
:101E2000206425BD25B5286025BDFC012481223014
:101E300059F0233081F0211114C025B52F7E25BD26
:101E400025B52F7D25BD0DC025B52F7E25BD25B51A
:101E5000206225BD06C025B5206125BD25B52062BF
:101E600025BDFC01808583BD81E0089525B52068EE
:101E700025BD25B52F7B25BD25B5286025BDFC01D9
:101E80002381213069F028F0223089F02330B1F02D
:101E90001BC025B52F7E25BD25B52F7D25BD14C0C2
:101EA00025B5206125BD25B52F7D25BD0DC025B5E6
:101EB0002F7E25BD25B5206225BD06C025B5206134
:101EC00025BD25B5206225BDFC01808583BD89B770
:101ED000806889BF81E0089580E0089580E00895DA
:101EE00080E0089580E0089580E0089580E00895FE
:101EF00080E0089580E008951F920F920FB60F9230
:101F000011242F933F934F935F936F937F938F93FE
:101F10009F93AF93BF93EF93FF938091A80090910D
:101F2000A900892B41F088B78E7F88BFE091A80077
:101F3000F091A9000995FF91EF91BF91AF919F9109
:101F40008F917F916F915F914F913F912F910F9062
:101F50000FBE0F901F9018951F920F920FB60F9201
:101F600011242F933F934F935F936F937F938F939E
:101F70009F93AF93BF93EF93FF938091A8009091AD
:101F8000A900892B41F088B78D7F88BFE091A80018
:101F9000F091A9000995FF91EF91BF91AF919F91A9
:101FA0008F917F916F915F914F913F912F910F9002
:101FB0000FBE0F901F9018951F920F920FB60F92A1
:101FC00011242F933F934F935F936F937F938F933E
:101FD0009F93AF93BF93EF93FF938091A60090914F
:101FE000A700892B41F088B78B7F88BFE091A600BE
:101FF000F091A7000995FF91EF91BF91AF919F914B
:102000008F917F916F915F914F913F912F910F90A1
:102010000FBE0F901F9018951F920F920FB60F9240
:1020200011242F933F934F935F936F937F938F93DD
:102030009F93AF93BF93EF93FF938091A6009091EE
:10204000A700892B41F088B78F7E88BFE091A6005A
:10205000F091A7000995FF91EF91BF91AF919F91EA
:102060008F917F916F915F914F913F912F910F9041
:102070000FBE0F901F9018951F920F920FB60F92E0
:1020800011242F933F934F935F936F937F938F937D
:102090009F93AF93BF93EF93FF938091A400909190
:1020A000A500892B41F088B78F7B88BFE091A40001
:1020B000F091A5000995FF91EF91BF91AF919F918C
:1020C0008F917F916F915F914F913F912F910F90E1
:1020D0000FBE0F901F9018951F920F920FB60F9280
:1020E00011242F933F934F935F936F937F938F931D
:1020F0009F93AF93BF93EF93FF938091A400909130
:10210000A500892B41F088B78F7788BFE091A400A4
:10211000F091A5000995FF91EF91BF91AF919F912B
:102120008F917F916F915F914F913F912F910F9080
:102130000FBE0F901F9018956330D0F40097D1F028
:10214000613051F018F0623069F016C09093A90028
:102150008093A80081E008959093A7008093A60043
:1021600081E008959093A5008093A40081E00895F4
:1021700080E0089580E0089580E008950097B1F12F
:10218000FC0120812330A0F53281343098F5338171
:10219000343090F53481343088F5213071F018F006
:1021A0002230D1F02DC012BE13BE1CBEFC01268110
:1021B00022BF0E94EC0C816008951CBC1DBC1FBC9A
:1021C0001EBC1BBC1ABCFC01268137813DBD2CBD49
:1021D0000E94EC0C8160089514BC15BC13BCFC017A
:1021E000268124BD0E94EC0C8160089580E0089552
:1021F00080E0089580E0089580E0089580E00895EB
:1022000081E008958A3040F4633040F4962F682FBF
:10221000892F0E94A90B089580E0089580E0089519
:10222000EE0FFF1F0590F491E02D0994F894FFCF75
:102230000303000003020000020300020200020187
:102240000002000000020000610000000301030022
:102250003B003800350032003A00370034003100CE
:00000001FF
