S00D00004D43555F312E73726563A2
S11300000C942A000C9447000C9447000C9447006D
S11300100C9447000C9447000C9447000C94470040
S11300200C9447000C9447000C9447000C94470030
S11300300C9447000C94F9010C9447000C9495011E
S11300400C9447000C9447000C9447000C94470010
S11300500C94470011241FBECFE5D8E0DEBFCDBF0E
S113006010E0A0E6B0E0E4ECFFE002C005900D92E1
S1130070AA3AB107D9F722E0AAEAB0E001C01D927A
S1130080AE3DB207E1F70E94EA000C94E0070C943D
S113009000008EE790E00E94D8008093AA000895A3
S11300A081E890E00E94D8008093AA0008958FB759
S11300B080688FBF81E890E00E94AF008093AA001F
S11300C08EE790E00E94AF008093AA0084E990E05C
S11300D00E9424059091AA00892B8093AA00E4E948
S11300E0F0E080E590E09383828389E490E0958357
S11300F08483CF010E948B059091AA00892B809361
S1130100AA00089584E990E00E94AF059091AA00A6
S1130110892B8093AA008091AB00811112C04EE11B
S113012050E060E670E084E990E00E94530590910D
S1130130AA00892B8093AA008091AB008F5F8093E3
S1130140AB0043E250E06CEA70E084E990E00E9486
S11301506F059091AA00892B8093AA000895CF93EC
S1130160DF930097D9F0FC0121812830C8F4208165
S11301702430C0F4EC0161E00E94EF008A818823FE
S113018019F0813031F010C060E0CE010E942F01DF
S11301900CC061E0CE010E942F0107C080E005C0C1
S11301A080E003C080E001C080E0DF91CF9108953A
S11301B0009751F0FC012181283040F42081243043
S11301C038F40E947001089580E0089580E0089555
S11301D080E008950E9457000E948200FDCF00979E
S11301E0B1F1DC0111962C911197283090F5EC9126
S11301F0E43088F56623B1F0613079F5F0E0EE0F74
S1130200FF1FEE55FF4F0190F081E02D308181E01A
S113021090E002C0880F991F2A95E2F7832B808310
S113022081E00895F0E0EE0FFF1FEE55FF4F0190BF
S1130230F081E02D308181E090E002C0880F991FA9
S11302402A95E2F780958323808381E0089580E0F6
S1130250089580E0089580E0089580E0089500976F
S1130260B9F1DC0111962C911197283098F5EC9195
S1130270E43090F5662319F06130B1F02FC0F0E05E
S1130280EE0FFF1FE656FF4F0190F081E02D308105
S113029081E090E002C0880F991F2A95E2F78095CB
S11302A08323808381E00895F0E0EE0FFF1FE6567C
S11302B0FF4F0190F081E02D308181E090E002C099
S11302C0880F991F2A95E2F7832B808381E0089594
S11302D080E0089580E0089580E0089580E0089526
S11302E00097E9F0DC0111962C9111972830C8F49D
S11302F0EC91E430C0F4F0E0EE0FFF1FE656FF4F40
S11303000190F081E02D308181E090E002C0880FFF
S1130310991F2A95E2F78327808381E0089580E07E
S1130320089580E0089580E008951F920F920FB61B
S11303300F9211242F933F934F935F936F937F9367
S11303408F939F93AF93BF93EF93FF93E091D1006B
S1130350F091D200309709F00995E091DB000E2E60
S1130360000CFF0BEA52FE4F80818CB98091DB00B8
S11303708F5F8093DB008091DB00882324F08091E1
S1130380DA008A3F20F01092DB001092DA008091AC
S11303908500843051F4E091DB000E2E000CFF0B3D
S11303A0EA52FE4F8081882381F08091850083305A
S11303B079F48091DB00082E000C990B2091D50074
S11303C03091D6008217930718F08AB18F7B8AB9CF
S11303D0FF91EF91BF91AF919F918F917F916F9119
S11303E05F914F913F912F910F900FBE0F901F90EF
S11303F018951F920F920FB60F9211242F933F93CB
S11304004F935F936F937F938F939F93AF93BF9318
S1130410EF93FF93E091CF00F091D000309709F073
S113042009958091D90090E02091D3003091D400B7
S11304308217930768F4E091D900F0E08CB1E4529C
S1130440FF4F80838091D9008F5F8093D90008C0CB
S113045081E08093D7008091D9008AB18F778AB9DF
S11304608091D9008A3F20F48091D8008A3F20F0FF
S11304701092D9001092D800FF91EF91BF91AF91E3
S11304809F918F917F916F915F914F913F912F91A8
S11304900F900FBE0F901F9018950F931F93CF933B
S11304A0DF93009709F408C1FC012081233008F090
S11304B005C13781353008F003C13681333008F087
S11304C001C13581323008F0FFC0EC01222319F05C
S11304D0213029F148C062857385848595850E9401
S11304E0E50620E030E040E851E40E9473079B01F8
S11304F0AC0160E074E284EF9AE40E94440620E0D8
S113050030E040E85FE30E94D7050E94B606072F5B
S1130510182F292F332700BD69B980E025C06285D3
S11305207385848595850E94E50620E030E040E0EF
S113053051E40E9473079B01AC0160E074E284EF14
S11305409AE40E94440620E030E040E85FE30E9421
S1130550D7050E94B606072F182F292F332700BD71
S113056069B980E001C081E090B5906890BD988140
S1130570913041F018F0923061F020C090B59F7B2B
S113058090BD1FC090B59F7B90BD9BB192609BB9FD
S113059018C090B5906490BD9885992319F0298569
S11305A0213021F490B59E7F90BD0BC0913011F0A5
S11305B0211106C090B5916090BD03C081E001C0D7
S11305C081E09981913019F49AB198609AB99B812C
S11305D0913019F49AB190619AB99D81992319F0D7
S11305E0913029F008C090B5977F90BD05C090B5B3
S11305F0986090BD01C081E09E81913059F018F05F
S1130600923079F015C090B59F7E90BD90B59F7DD6
S113061090BD0FC090B59F7E90BD90B5906290BD87
S113062008C090B5906190BD90B5906290BD01C036
S113063081E09F819230F9F028F4992341F09130C0
S113064081F037C0933009F1943049F132C090B54C
S11306509D7F90BD90B59B7F90BD9AB19B7F9AB9C9
S113066029C090B5926090BD90B59B7F90BD9AB122
S11306709B7F9AB91FC090B59D7F90BD90B5946043
S113068090BD9AB19B7F9AB915C090B5926090BD08
S113069090B5946090BD9AB19B7F9AB90BC090B508
S11306A0926090BD90B5946090BD9AB194609AB9EF
S11306B001C081E01CB809C081E007C081E005C029
S11306C081E003C081E001C081E0DF91CF911F91FF
S11306D00F910895FC01892B49F18081833040F505
S11306E08781853038F58681833030F58581823085
S11306F028F58281811105C05D9BFECF6CB980E035
S113070008958130E9F48AB180648AB984E08093E1
S11307108500E091DA00F0E0EA52FE4F60838091B8
S1130720DA008F5F8093DA0080E0089581E0089515
S113073081E0089581E0089581E0089581E00895BD
S113074081E00895009789F16115710581F1FC013B
S11307502081233070F52781253068F526812330E8
S113076060F52581223058F58481811107C05F9B93
S1130770FECF8CB1FB01808380E00895813009F5C0
S11307808AB180688AB984E080938400E091D800BB
S1130790F0E0E452FF4F8081FB0180838091D80018
S11307A08F5F8093D80080E0089581E0089581E010
S11307B0089581E0089581E0089581E0089581E03D
S11307C0089581E00895DF92EF92FF920F931F93B3
S11307D0CF93DF93009709F456C06115710509F4AE
S11307E054C0FC012081233008F051C027812530FA
S11307F008F04FC02681233008F04DC025812230F7
S113080008F04BC02281222331F016C0CE010E9491
S11308106A03D39405C07A018B01EC01D12C80E0EA
S11308202D2D30E02E153F05D8F5F801E20FF31F0A
S113083060816111EBCF34C0FC018481813079F592
S11308408AB180648AB95093D6004093D50083E07E
S11308508093850020E010C0E091DA00F0E0DB0135
S1130860A80FB91F8C91EA52FE4F80838091DA0061
S11308708F5F8093DA002F5F822F90E084179507B3
S113088058F380E00DC081E00BC081E009C081E035
S113089007C081E005C081E003C081E001C080E0C1
S11308A0DF91CF911F910F91FF90EF90DF9008950A
S11308B0DF92EF92FF920F931F93CF93DF930097F2
S11308C009F45FC06115710509F45DC0FC01208164
S11308D0233008F05AC02781253008F058C02681FB
S11308E0233008F056C02581223008F054C02281FC
S11308F0222331F017C0CE010E94A203D39405C075
S11309007A018B01EC01D12C80E06D2D70E06E1525
S11309107F0508F045C0600F711FFB0190819111A4
S1130920EACF3EC0FC0184818130B9F58AB1806888
S11309308AB983E0809384005093D4004093D30019
S11309408091D700882359F11092D80020E010C07C
S1130950DB01A80FB91FE091D800F0E0E452FF4F8B
S113096030813C938091D8008F5F8093D8002F5FB3
S1130970822F90E08417950758F31092D70080E0F7
S11309800FC081E00DC081E00BC081E009C081E0AF
S113099007C081E005C081E003C080E001C080E0C1
S11309A0DF91CF911F910F91FF90EF90DF90089509
S11309B0009731F09093D2008093D10080E00895A5
S11309C081E00895009731F09093D0008093CF0098
S11309D080E0089581E008958091D6029091D70235
S11309E001969093D7028093D6022091D60230913B
S11309F0D7028091DC029091DD022817390738F084
S1130A0081E08093D9021092D7021092D602089501
S1130A108091D4029091D50201969093D50280934F
S1130A20D4022091D4023091D5028091DA029091BF
S1130A30DB022817390738F081E08093D80210923E
S1130A40D5021092D40208951F93CF93DF93009799
S1130A5001F1FC0120812330F0F421111EC0EC01CE
S1130A6086E890E00E944D02182F8981882311F0B6
S1130A70823029F48CEE94E00E94D804182B8981EA
S1130A808150823058F488E095E00E94E204182BEB
S1130A9005C012E003C012E001C010E0812FDF9115
S1130AA0CF911F910895009791F06115710589F018
S1130AB0FC018081833078F481110FC05093DD02F2
S1130AC04093DC0286E890E00E94E303089582E00C
S1130AD0089582E0089582E0089580E008950097E3
S1130AE091F06115710589F0FC018081833078F4FF
S1130AF081110FC05093DB024093DA0286E890E044
S1130B000E945804089582E0089582E0089582E0E6
S1130B10089580E008950097E1F0FC0120812330DE
S1130B20D0F42181222311F0223039F4FC014281D6
S1130B3053815093D3024093D2022150223068F45F
S1130B40FC01848195819093D1028093D00280E04E
S1130B50089582E0089582E0089580E00895009762
S1130B60F1F0FC0180818330E0F481111CC080919C
S1130B70D902813039F4E091D202F091D30209957F
S1130B801092D9028091D802813079F4E091D00298
S1130B90F091D10209951092D80280E0089582E084
S1130BA0089582E0089580E0089580E00895505803
S1130BB0BB27AA270E94EF050C9439070E942B0734
S1130BC038F00E94320720F039F49F3F19F426F4DC
S1130BD00C9428070EF4E095E7FB0C942207E92F08
S1130BE00E944A0758F3BA176207730784079507E8
S1130BF020F079F4A6F50C946C070EF4E0950B2E16
S1130C00BA2FA02D0B01B90190010C01CA01A0015A
S1130C101124FF27591B99F0593F50F4503E68F1B5
S1130C201A16F040A22F232F342F4427585FF3CFF6
S1130C30469537952795A795F0405395C9F77EF4C7
S1130C401F16BA0B620B730B840BBAF09150A1F010
S1130C50FF0FBB1F661F771F881FC2F70EC0BA0F96
S1130C60621F731F841F48F4879577956795B7951E
S1130C70F7959E3F08F0B0CF9395880F08F0992719
S1130C80EE0F9795879508950E9458060C9439079E
S1130C900E94320758F00E942B0740F029F45F3F6E
S1130CA029F00C94220751110C946D070C94280719
S1130CB00E944A0768F39923B1F3552391F3951BD6
S1130CC0550BBB27AA2762177307840738F09F5F69
S1130CD05F4F220F331F441FAA1FA9F335D00E2ED6
S1130CE03AF0E0E832D091505040E695001CCAF743
S1130CF02BD0FE2F29D0660F771F881FBB1F261706
S1130D0037074807AB07B0E809F0BB0B802DBF01DC
S1130D10FF2793585F4F3AF09E3F510578F00C94AB
S1130D2022070C946D075F3FE4F3983ED4F3869555
S1130D3077956795B795F7959F5FC9F7880F911DCC
S1130D409695879597F90895E1E0660F771F881FB8
S1130D50BB1F621773078407BA0720F0621B730B6B
S1130D60840BBA0BEE1F88F7E09508950E94520792
S1130D7088F09F5798F0B92F9927B751B0F0E1F058
S1130D80660F771F881F991F1AF0BA95C9F714C008
S1130D90B13091F00E946C07B1E008950C946C0797
S1130DA0672F782F8827B85F39F0B93FCCF3869541
S1130DB077956795B395D9F73EF49095809570959E
S1130DC061957F4F8F4F9F4F0895E89409C097FB1B
S1130DD03EF490958095709561957F4F8F4F9F4F0E
S1130DE09923A9F0F92F96E9BB279395F695879552
S1130DF077956795B795F111F8CFFAF4BB0F11F415
S1130E0060FF1BC06F5F7F4F8F4F9F4F16C08823BB
S1130E1011F096E911C0772321F09EE8872F762FF1
S1130E2005C0662371F096E8862F70E060E02AF032
S1130E309A95660F771F881FDAF7880F969587951E
S1130E4097F9089597F99F6780E870E060E0089546
S1130E509FEF80EC089500240A94161617061806CE
S1130E600906089500240A941216130614060506AA
S1130E700895092E0394000C11F4882352F0BB0F3B
S1130E8040F4BF2B11F460FF04C06F5F7F4F8F4F9E
S1130E909F4F089557FD9058440F551F59F05F3FD9
S1130EA071F04795880F97FB991F61F09F3F79F088
S1130EB087950895121613061406551FF2CF46950A
S1130EC0F1DF08C0161617061806991FF1CF86958C
S1130ED07105610508940895E894BB276627772770
S1130EE0CB0197F908950E9486070C9439070E9454
S1130EF02B0738F00E94320720F0952311F00C9450
S1130F0022070C94280711240C946D070E944A07A9
S1130F1070F3959FC1F3950F50E0551F629FF00148
S1130F20729FBB27F00DB11D639FAA27F00DB11D61
S1130F30AA1F649F6627B00DA11D661F829F2227EA
S1130F40B00DA11D621F739FB00DA11D621F839F71
S1130F50A00D611D221F749F3327A00D611D231F47
S1130F60849F600D211D822F762F6A2F11249F5795
S1130F7050409AF0F1F088234AF0EE0FFF1FBB1F98
S1130F80661F771F881F91505040A9F79E3F510557
S1130F9080F00C9422070C946D075F3FE4F3983EB5
S1130FA0D4F3869577956795B795F795E7959F5F01
S1130FB0C1F7FE2B880F911D9695879597F9089593
S1070FC0F894FFCFCF
S1130FC453656E6420436F6E6669726D6174696FF4
S1130FD46E20544F204D43555F3200000000010140
S1130FE400010000040400010101010000030000E9
S1130FF4802500000002000000003B00380035009A
S10D100432003A00370034003100D6
S9030000FC
