:100000000C9432000C944F000C944F000C944F0051
:100010000C944F000C944F000C944F000C944F0024
:100020000C944F000C944F000C944F000C944F0014
:100030000C944F000C944F000C944F000C944F0004
:100040000C944F000C944F000C944F000C944F00F4
:100050000C944F00BE00C400CA00D000D600DC00E3
:10006000E200E80011241FBECFE5D8E0DEBFCDBF1F
:1000700010E0A0E6B0E0E8EDF4E002C005900D92DB
:10008000A438B107D9F720E0A4E8B0E001C01D9280
:10009000A039B207E1F70E94A9010C946A020C94FE
:1000A0000000CF9389E690E00E945A01C82F86E6AF
:1000B00090E00E945A01C82B83E690E00E945A010A
:1000C000C82B80E690E00E945A01C82B8CE890E093
:1000D0000E94F4008C2BCF910895CF936BE870E0D1
:1000E0008CE890E00E941001C82F80918B00813035
:1000F000F1F48091850090918600A0918700B091E5
:100100008800853F21E09207A105B10520F081E03C
:1001100080938A0016C00196A11DB11D80938500B1
:1001200090938600A0938700B09388000AC0109235
:10013000850010928600109287001092880010921D
:100140008A009091890080918A00981709F449C02B
:1001500080938900813009F044C080918400E1E0FF
:10016000E80FE09384008E2F90E0FC013197E83097
:10017000F105B0F5E65DFF4F0C94640289E690E06E
:100180000E948301C82B2DC086E690E00E94830167
:10019000C82B27C083E690E00E948301C82B21C0B2
:1001A00080E690E00E948301C82B1BC089E690E0A6
:1001B0000E949601C82B15C086E690E00E94960129
:1001C000C82B0FC083E690E00E949601C82B09C09F
:1001D00080E690E00E949601C82B1092840001C036
:1001E000C0E08C2FCF910895CF93DF93009781F0DB
:1001F000FC012181283070F42081243068F4EC0166
:1002000060E00E94AE0160E0CE010E94EE0105C0F8
:1002100080E003C080E001C080E0DF91CF910895CD
:10022000EF92FF920F931F93CF93DF931F92CDB75F
:10023000DEB71982009759F1FC012181283048F579
:100240002081243040F57B018C01BE016F5F7F4F20
:100250000E942F02F801938191110BC0998199237B
:1002600029F09130D1F4F70190831CC0F70110827E
:1002700019C09130A1F49981992329F0913089F422
:10028000F70110820FC091E0F70190830BC080E06E
:1002900009C080E007C080E005C080E003C080E0C6
:1002A00001C080E00F90DF91CF911F910F91FF90DF
:1002B000EF900895CF93DF930097D9F0FC0121814F
:1002C0002830C8F420812430C0F4EC0161E00E94A1
:1002D000AE018A81882319F0813031F010C060E0CE
:1002E000CE010E94EE010CC061E0CE010E94EE0141
:1002F00007C080E005C080E003C080E001C080E06E
:10030000DF91CF910895009759F0FC0121812830A9
:1003100048F42081243040F461E00E94EE01089509
:1003200080E0089580E0089580E00895009759F0F6
:10033000FC012181283048F42081243040F460E021
:100340000E94EE01089580E0089580E0089580E025
:1003500008950E9451000E946D00FDCF0097B1F1F9
:10036000DC0111962C911197283090F5EC91E43036
:1003700088F56623B1F0613079F5F0E0EE0FFF1FEC
:10038000E458FF4F0190F081E02D308181E090E052
:1003900002C0880F991F2A95E2F7832B808381E0A2
:1003A0000895F0E0EE0FFF1FE458FF4F0190F08139
:1003B000E02D308181E090E002C0880F991F2A95DE
:1003C000E2F780958323808381E0089580E008959B
:1003D00080E0089580E0089580E008950097B9F1E5
:1003E000DC0111962C911197283098F5EC91E430AE
:1003F00090F5662319F06130B1F02FC0F0E0EE0FF8
:10040000FF1FE459FF4F0190F081E02D308181E022
:1004100090E002C0880F991F2A95E2F78095832308
:10042000808381E00895F0E0EE0FFF1FE459FF4F55
:100430000190F081E02D308181E090E002C0880FD2
:10044000991F2A95E2F7832B808381E0089580E04D
:10045000089580E0089580E0089580E00895009771
:1004600059F16115710551F1DC0111964C9111970B
:10047000483030F5EC91E43028F5F0E0EE0FFF1F46
:10048000EC58FF4F0190F081E02D508181E090E029
:100490009C01042E02C0220F331F0A94E2F7852F1D
:1004A00090E08223932302C0959587954A95E2F7C1
:1004B000FB01808381E0089580E0089580E0089545
:1004C00080E0089580E00895EE0FFF1F0590F491FD
:0804D000E02D0994F894FFCF20
:1004D8000203000202000201000200003B00380093
:1004E8003500320039003600330030003A0037005A
:0404F800340031009B
:00000001FF
