:100000000C9432000C944F000C944F000C944F0051
:100010000C944F000C944F000C944F000C944F0024
:100020000C944F000C944F000C944F000C944F0014
:100030000C944F000C944F000C944F000C944F0004
:100040000C944F000C944F000C944F000C944F00F4
:100050000C944F00BE00C400CA00D000D600DC00E3
:10006000E200E80011241FBECFE5D8E0DEBFCDBF1F
:1000700010E0A0E6B0E0ECEDF4E002C005900D92D7
:10008000A638B107D9F720E0A6E8B0E001C01D927C
:10009000A239B207E1F70E94A7010C946C020C94FC
:1000A0000000CF9389E690E00E945801C82F86E6B1
:1000B00090E00E945801C82B83E690E00E9458010E
:1000C000C82B80E690E00E945801C82B8EE890E093
:1000D0000E94F2008C2BCF910895CF936DE870E0D1
:1000E0008EE890E00E940E01C82F80918D00813033
:1000F000F1F48091870090918800A0918900B091DF
:100100008A00853F21E09207A105B10520F081E03A
:1001100080938C0016C00196A11DB11D80938700AD
:1001200090938800A0938900B0938A000AC010922F
:100130008700109288001092890010928A00109215
:100140008C0090918B0080918C00981709F447C027
:1001500080938B00813009F042C080918600E1E0FD
:10016000E80FE09386008E2F90E0FC013197E83095
:10017000F105A8F5E65DFF4F0C94660289E690E074
:100180000E948101C82B2BC086E690E00E9481016D
:10019000C82B25C083E690E00E948101C82B1FC0B8
:1001A00080E690E00E948101C82B19C089E690E0AA
:1001B0000E949401C82B13C086E690E00E9494012F
:1001C000C82B0DC083E690E00E949401C82B07C0A5
:1001D00080E690E00E949401C82B109286008C2F3C
:1001E000CF910895CF93DF93009781F0FC01218197
:1001F000283070F42081243068F4EC0160E00E9423
:10020000B00160E0CE010E94F00105C080E003C0B3
:1002100080E001C080E0DF91CF910895EF92FF92DE
:100220000F931F93CF93DF931F92CDB7DEB7198241
:10023000009759F1FC012181283048F520812430B4
:1002400040F57B018C01BE016F5F7F4F0E94310240
:10025000F801938191110BC09981992329F0913074
:10026000D1F4F70190831CC0F701108219C09130BE
:10027000A1F49981992329F0913089F4F701108232
:100280000FC091E0F70190830BC080E009C080E0CF
:1002900007C080E005C080E003C080E001C080E0CE
:1002A0000F90DF91CF911F910F91FF90EF900895E4
:1002B000CF93DF930097D9F0FC0121812830C8F457
:1002C00020812430C0F4EC0161E00E94B0018A81F9
:1002D000882319F0813031F010C060E0CE010E9417
:1002E000F0010CC061E0CE010E94F00107C080E087
:1002F00005C080E003C080E001C080E0DF91CF91C5
:100300000895009759F0FC012181283048F420819C
:10031000243040F461E00E94F001089580E00895E7
:1003200080E0089580E00895009759F0FC01218154
:10033000283048F42081243040F460E00E94F0012D
:10034000089580E0089580E0089580E008950E9477
:10035000510080936C000E946D0080936C00FBCF75
:100360000097B1F1DC0111962C911197283090F58E
:10037000EC91E43088F56623B1F0613079F5F0E076
:10038000EE0FFF1FE358FF4F0190F081E02D308109
:1003900081E090E002C0880F991F2A95E2F7832B35
:1003A000808381E00895F0E0EE0FFF1FE358FF4FD8
:1003B0000190F081E02D308181E090E002C0880F53
:1003C000991F2A95E2F780958323808381E0089521
:1003D00080E0089580E0089580E0089580E0089529
:1003E0000097B9F1DC0111962C911197283098F5FE
:1003F000EC91E43090F5662319F06130B1F02FC034
:10040000F0E0EE0FFF1FE359FF4F0190F081E02D68
:10041000308181E090E002C0880F991F2A95E2F7B1
:1004200080958323808381E00895F0E0EE0FFF1F25
:10043000E359FF4F0190F081E02D308181E090E0A1
:1004400002C0880F991F2A95E2F7832B808381E0F1
:10045000089580E0089580E0089580E0089580E0A8
:100460000895009759F16115710551F1DC0111965C
:100470004C911197483030F5EC91E43028F5F0E0DC
:10048000EE0FFF1FEB58FF4F0190F081E02D5081E0
:1004900081E090E09C01042E02C0220F331F0A94D9
:1004A000E2F7852F90E08223932302C095958795EC
:1004B0004A95E2F7FB01808381E0089580E008958A
:1004C00080E0089580E0089580E00895EE0FFF1F1A
:0C04D0000590F491E02D0994F894FFCF02
:1004DC00020300020200020100020000013B00388E
:1004EC00003500320039003600330030003A003756
:0604FC0000340031000095
:00000001FF
